{
  "contractName": "MTSmartContract",
  "abi": [
    {
      "constant": true,
      "inputs": [
        {
          "name": "",
          "type": "uint256"
        }
      ],
      "name": "owners",
      "outputs": [
        {
          "name": "",
          "type": "address"
        }
      ],
      "payable": false,
      "stateMutability": "view",
      "type": "function"
    },
    {
      "constant": false,
      "inputs": [
        {
          "name": "newOwners",
          "type": "address[]"
        }
      ],
      "name": "transferOwnership",
      "outputs": [],
      "payable": false,
      "stateMutability": "nonpayable",
      "type": "function"
    },
    {
      "constant": true,
      "inputs": [],
      "name": "allOperationsCount",
      "outputs": [
        {
          "name": "",
          "type": "uint256"
        }
      ],
      "payable": false,
      "stateMutability": "view",
      "type": "function"
    },
    {
      "constant": true,
      "inputs": [],
      "name": "howManyOwnersDecide",
      "outputs": [
        {
          "name": "",
          "type": "uint256"
        }
      ],
      "payable": false,
      "stateMutability": "view",
      "type": "function"
    },
    {
      "constant": true,
      "inputs": [
        {
          "name": "wallet",
          "type": "address"
        }
      ],
      "name": "isOwner",
      "outputs": [
        {
          "name": "",
          "type": "bool"
        }
      ],
      "payable": false,
      "stateMutability": "view",
      "type": "function"
    },
    {
      "constant": true,
      "inputs": [
        {
          "name": "",
          "type": "uint256"
        }
      ],
      "name": "allOperations",
      "outputs": [
        {
          "name": "",
          "type": "bytes32"
        }
      ],
      "payable": false,
      "stateMutability": "view",
      "type": "function"
    },
    {
      "constant": true,
      "inputs": [
        {
          "name": "",
          "type": "bytes32"
        }
      ],
      "name": "votesMaskByOperation",
      "outputs": [
        {
          "name": "",
          "type": "uint256"
        }
      ],
      "payable": false,
      "stateMutability": "view",
      "type": "function"
    },
    {
      "constant": false,
      "inputs": [
        {
          "name": "operation",
          "type": "bytes32"
        }
      ],
      "name": "cancelPending",
      "outputs": [],
      "payable": false,
      "stateMutability": "nonpayable",
      "type": "function"
    },
    {
      "constant": true,
      "inputs": [
        {
          "name": "",
          "type": "bytes32"
        }
      ],
      "name": "votesCountByOperation",
      "outputs": [
        {
          "name": "",
          "type": "uint256"
        }
      ],
      "payable": false,
      "stateMutability": "view",
      "type": "function"
    },
    {
      "constant": true,
      "inputs": [],
      "name": "ownersCount",
      "outputs": [
        {
          "name": "",
          "type": "uint256"
        }
      ],
      "payable": false,
      "stateMutability": "view",
      "type": "function"
    },
    {
      "constant": false,
      "inputs": [
        {
          "name": "newOwners",
          "type": "address[]"
        },
        {
          "name": "newHowManyOwnersDecide",
          "type": "uint256"
        }
      ],
      "name": "transferOwnershipWithHowMany",
      "outputs": [],
      "payable": false,
      "stateMutability": "nonpayable",
      "type": "function"
    },
    {
      "inputs": [],
      "payable": false,
      "stateMutability": "nonpayable",
      "type": "constructor"
    },
    {
      "anonymous": false,
      "inputs": [
        {
          "indexed": false,
          "name": "previousOwners",
          "type": "address[]"
        },
        {
          "indexed": false,
          "name": "newOwners",
          "type": "address[]"
        }
      ],
      "name": "OwnershipTransferred",
      "type": "event"
    },
    {
      "constant": false,
      "inputs": [],
      "name": "joinIn",
      "outputs": [],
      "payable": false,
      "stateMutability": "nonpayable",
      "type": "function"
    },
    {
      "constant": false,
      "inputs": [
        {
          "name": "credit_id",
          "type": "uint256"
        }
      ],
      "name": "withdrawLoans",
      "outputs": [],
      "payable": false,
      "stateMutability": "nonpayable",
      "type": "function"
    },
    {
      "constant": false,
      "inputs": [
        {
          "name": "name",
          "type": "string"
        },
        {
          "name": "wallet",
          "type": "address"
        }
      ],
      "name": "addCredit",
      "outputs": [
        {
          "name": "",
          "type": "uint256"
        }
      ],
      "payable": false,
      "stateMutability": "nonpayable",
      "type": "function"
    },
    {
      "constant": false,
      "inputs": [
        {
          "name": "id",
          "type": "uint256"
        }
      ],
      "name": "approveCredit",
      "outputs": [
        {
          "name": "",
          "type": "bool"
        }
      ],
      "payable": false,
      "stateMutability": "nonpayable",
      "type": "function"
    }
  ],
  "bytecode": "0x606060405234156200001057600080fd5b600180548060010182816200002691906200021d565b9160005260206000209001600033909190916101000a81548173ffffffffffffffffffffffffffffffffffffffff021916908373ffffffffffffffffffffffffffffffffffffffff160217905550506001600460003373ffffffffffffffffffffffffffffffffffffffff1673ffffffffffffffffffffffffffffffffffffffff168152602001908152602001600020819055506001600081905550620000e0620000e6640100000000026200057a176401000000009004565b620002ec565b60008090505b60088054905081101562000181573373ffffffffffffffffffffffffffffffffffffffff166008828154811015156200012157fe5b906000526020600020900160000160009054906101000a900473ffffffffffffffffffffffffffffffffffffffff1673ffffffffffffffffffffffffffffffffffffffff16141562000173576200021a565b8080600101915050620000ec565b600880548060010182816200019791906200024c565b916000526020600020900160006020604051908101604052803373ffffffffffffffffffffffffffffffffffffffff16815250909190915060008201518160000160006101000a81548173ffffffffffffffffffffffffffffffffffffffff021916908373ffffffffffffffffffffffffffffffffffffffff1602179055505050505b50565b81548183558181151162000247578183600052602060002091820191016200024691906200027b565b5b505050565b8154818355818115116200027657818360005260206000209182019101620002759190620002a3565b5b505050565b620002a091905b808211156200029c57600081600090555060010162000282565b5090565b90565b620002e991905b80821115620002e557600080820160006101000a81549073ffffffffffffffffffffffffffffffffffffffff021916905550600101620002aa565b5090565b90565b611e6380620002fc6000396000f3006060604052600436106100db576000357c0100000000000000000000000000000000000000000000000000000000900463ffffffff168063025e7c27146100e057806318bcd3d01461014357806322f2f89a1461019d5780632f4a81df146101c65780632f54bf6e146101ef578063431ab2331461024057806353cc38241461027f578063568b5915146102945780636fd22e7b146102cf578063893372ca146102f257806390a5308514610319578063b948854614610354578063ba2332591461037d578063e1d073341461040d578063e851834114610448575b600080fd5b34156100eb57600080fd5b61010160048080359060200190919050506104ab565b604051808273ffffffffffffffffffffffffffffffffffffffff1673ffffffffffffffffffffffffffffffffffffffff16815260200191505060405180910390f35b341561014e57600080fd5b61019b6004808035906020019082018035906020019080806020026020016040519081016040528093929190818152602001838360200280828437820191505050505050919050506104ea565b005b34156101a857600080fd5b6101b06104f8565b6040518082815260200191505060405180910390f35b34156101d157600080fd5b6101d9610505565b6040518082815260200191505060405180910390f35b34156101fa57600080fd5b610226600480803573ffffffffffffffffffffffffffffffffffffffff1690602001909190505061050b565b604051808215151515815260200191505060405180910390f35b341561024b57600080fd5b6102616004808035906020019091905050610556565b60405180826000191660001916815260200191505060405180910390f35b341561028a57600080fd5b61029261057a565b005b341561029f57600080fd5b6102b96004808035600019169060200190919050506106aa565b6040518082815260200191505060405180910390f35b34156102da57600080fd5b6102f060048080359060200190919050506106c2565b005b34156102fd57600080fd5b610317600480803560001916906020019091905050610873565b005b341561032457600080fd5b61033e600480803560001916906020019091905050610989565b6040518082815260200191505060405180910390f35b341561035f57600080fd5b6103676109a1565b6040518082815260200191505060405180910390f35b341561038857600080fd5b6103f7600480803590602001908201803590602001908080601f0160208091040260200160405190810160405280939291908181526020018383808284378201915050505050509190803573ffffffffffffffffffffffffffffffffffffffff169060200190919050506109ae565b6040518082815260200191505060405180910390f35b341561041857600080fd5b61042e6004808035906020019091905050610b32565b604051808215151515815260200191505060405180910390f35b341561045357600080fd5b6104a9600480803590602001908201803590602001908080602002602001604051908101604052809392919081815260200183836020028082843782019150505050505091908035906020019091905050610ee1565b005b6001818154811015156104ba57fe5b90600052602060002090016000915054906101000a900473ffffffffffffffffffffffffffffffffffffffff1681565b6104f5818251610ee1565b50565b6000600280549050905090565b60005481565b600080600460008473ffffffffffffffffffffffffffffffffffffffff1673ffffffffffffffffffffffffffffffffffffffff16815260200190815260200160002054119050919050565b60028181548110151561056557fe5b90600052602060002090016000915090505481565b60008090505b600880549050811015610610573373ffffffffffffffffffffffffffffffffffffffff166008828154811015156105b357fe5b906000526020600020900160000160009054906101000a900473ffffffffffffffffffffffffffffffffffffffff1673ffffffffffffffffffffffffffffffffffffffff161415610603576106a7565b8080600101915050610580565b600880548060010182816106249190611ac3565b916000526020600020900160006020604051908101604052803373ffffffffffffffffffffffffffffffffffffffff16815250909190915060008201518160000160006101000a81548173ffffffffffffffffffffffffffffffffffffffff021916908373ffffffffffffffffffffffffffffffffffffffff1602179055505050505b50565b60066020528060005260406000206000915090505481565b60008060008090505b60098054905081101561086d573373ffffffffffffffffffffffffffffffffffffffff166009828154811015156106fe57fe5b906000526020600020906005020160030160009054906101000a900473ffffffffffffffffffffffffffffffffffffffff1673ffffffffffffffffffffffffffffffffffffffff16141561086057600092505b60098054905083101561085b578360098481548110151561076e57fe5b906000526020600020906005020160000154141561084e5760098381548110151561079557fe5b906000526020600020906005020160040160003373ffffffffffffffffffffffffffffffffffffffff1673ffffffffffffffffffffffffffffffffffffffff16815260200190815260200160002054915060006009848154811015156107f757fe5b906000526020600020906005020160040160003373ffffffffffffffffffffffffffffffffffffffff1673ffffffffffffffffffffffffffffffffffffffff1681526020019081526020016000208190555061085b565b8280600101935050610751565b61086d565b80806001019150506106cb565b50505050565b600061087e3361050b565b151561088957600080fd5b6001600460003373ffffffffffffffffffffffffffffffffffffffff1673ffffffffffffffffffffffffffffffffffffffff1681526020019081526020016000205403905060008160020a6006600085600019166000191681526020019081526020016000205416141515156108fe57600080fd5b8060020a196006600084600019166000191681526020019081526020016000206000828254169250508190555060076000836000191660001916815260200190815260200160002060008154809291906001900391905055506000600760008460001916600019168152602001908152602001600020541415610985576109848261199e565b5b5050565b60076020528060005260406000206000915090505481565b6000600180549050905090565b6000806109ba3361050b565b15156109c557600080fd5b6001600980549050019050600980548060010182816109e49190611aef565b9160005260206000209060050201600060a0604051908101604052808581526020018881526020018773ffffffffffffffffffffffffffffffffffffffff1681526020016000151581526020013373ffffffffffffffffffffffffffffffffffffffff168152509091909150600082015181600001556020820151816001019080519060200190610a76929190611b21565b5060408201518160020160006101000a81548173ffffffffffffffffffffffffffffffffffffffff021916908373ffffffffffffffffffffffffffffffffffffffff16021790555060608201518160020160146101000a81548160ff02191690831515021790555060808201518160030160006101000a81548173ffffffffffffffffffffffffffffffffffffffff021916908373ffffffffffffffffffffffffffffffffffffffff1602179055505050508091505092915050565b6000806000803373ffffffffffffffffffffffffffffffffffffffff16600360009054906101000a900473ffffffffffffffffffffffffffffffffffffffff1673ffffffffffffffffffffffffffffffffffffffff161415610c2157600092505b600980549050831015610c175784600984815481101515610bb057fe5b9060005260206000209060050201600001541415610c0a576001600984815481101515610bd957fe5b906000526020600020906005020160020160146101000a81548160ff02191690831515021790555060019350610c1c565b8280600101935050610b93565b600093505b610ed9565b610c2a3361050b565b1515610c3557600080fd5b6001600460003373ffffffffffffffffffffffffffffffffffffffff1673ffffffffffffffffffffffffffffffffffffffff1681526020019081526020016000205403915060003660405180838380828437820191505092505050604051809103902090506000600660008360001916600019168152602001908152602001600020541415610d13576002805490506005600083600019166000191681526020019081526020016000208190555060028054806001018281610cf79190611ba1565b9160005260206000209001600083909190915090600019169055505b60008260020a6006600084600019166000191681526020019081526020016000205416141515610d4257600080fd5b8160020a60066000836000191660001916815260200190815260200160002060008282541792505081905550600160076000836000191660001916815260200190815260200160002060008282540192505081905550600054600760008360001916600019168152602001908152602001600020541415610ed857610dc68161199e565b33600360006101000a81548173ffffffffffffffffffffffffffffffffffffffff021916908373ffffffffffffffffffffffffffffffffffffffff160217905550600092505b600980549050831015610e905784600984815481101515610e2957fe5b9060005260206000209060050201600001541415610e83576001600984815481101515610e5257fe5b906000526020600020906005020160020160146101000a81548160ff02191690831515021790555060019350610e95565b8280600101935050610e0c565b600093505b6000600360006101000a81548173ffffffffffffffffffffffffffffffffffffffff021916908373ffffffffffffffffffffffffffffffffffffffff1602179055505b5b505050919050565b60008060003373ffffffffffffffffffffffffffffffffffffffff16600360009054906101000a900473ffffffffffffffffffffffffffffffffffffffff1673ffffffffffffffffffffffffffffffffffffffff1614156113575760008551111515610f4c57600080fd5b610100855111151515610f5e57600080fd5b600084111515610f6d57600080fd5b84518411151515610f7d57600080fd5b600092505b8451831015610feb57600073ffffffffffffffffffffffffffffffffffffffff168584815181101515610fb157fe5b9060200190602002015173ffffffffffffffffffffffffffffffffffffffff1614151515610fde57600080fd5b8280600101935050610f82565b7fe62c04bb3499d4f432a50e07318d42861c4865afb22ee4cfe403d4f945507090600186604051808060200180602001838103835285818154815260200191508054801561108e57602002820191906000526020600020905b8160009054906101000a900473ffffffffffffffffffffffffffffffffffffffff1673ffffffffffffffffffffffffffffffffffffffff1681526020019060010190808311611044575b5050838103825284818151815260200191508051906020019060200280838360005b838110156110cb5780820151818401526020810190506110b0565b5050505090500194505050505060405180910390a1600092505b60018054905083101561117c576004600060018581548110151561110557fe5b906000526020600020900160009054906101000a900473ffffffffffffffffffffffffffffffffffffffff1673ffffffffffffffffffffffffffffffffffffffff1673ffffffffffffffffffffffffffffffffffffffff1681526020019081526020016000206000905582806001019350506110e5565b600092505b845183101561125a57600060046000878681518110151561119e57fe5b9060200190602002015173ffffffffffffffffffffffffffffffffffffffff1673ffffffffffffffffffffffffffffffffffffffff168152602001908152602001600020541415156111ef57600080fd5b6001830160046000878681518110151561120557fe5b9060200190602002015173ffffffffffffffffffffffffffffffffffffffff1673ffffffffffffffffffffffffffffffffffffffff168152602001908152602001600020819055508280600101935050611181565b8460019080519060200190611270929190611bcd565b5083600081905550600092505b600280549050831015611342576006600060028581548110151561129d57fe5b9060005260206000209001546000191660001916815260200190815260200160002060009055600760006002858154811015156112d657fe5b90600052602060002090015460001916600019168152602001908152602001600020600090556005600060028581548110151561130f57fe5b9060005260206000209001546000191660001916815260200190815260200160002060009055828060010193505061127d565b60006002816113519190611c57565b50611997565b6113603361050b565b151561136b57600080fd5b6001600460003373ffffffffffffffffffffffffffffffffffffffff1673ffffffffffffffffffffffffffffffffffffffff168152602001908152602001600020540391506000366040518083838082843782019150509250505060405180910390209050600060066000836000191660001916815260200190815260200160002054141561144957600280549050600560008360001916600019168152602001908152602001600020819055506002805480600101828161142d9190611ba1565b9160005260206000209001600083909190915090600019169055505b60008260020a600660008460001916600019168152602001908152602001600020541614151561147857600080fd5b8160020a60066000836000191660001916815260200190815260200160002060008282541792505081905550600160076000836000191660001916815260200190815260200160002060008282540192505081905550600054600760008360001916600019168152602001908152602001600020541415611996576114fc8161199e565b33600360006101000a81548173ffffffffffffffffffffffffffffffffffffffff021916908373ffffffffffffffffffffffffffffffffffffffff1602179055506000855111151561154d57600080fd5b61010085511115151561155f57600080fd5b60008411151561156e57600080fd5b8451841115151561157e57600080fd5b600092505b84518310156115ec57600073ffffffffffffffffffffffffffffffffffffffff1685848151811015156115b257fe5b9060200190602002015173ffffffffffffffffffffffffffffffffffffffff16141515156115df57600080fd5b8280600101935050611583565b7fe62c04bb3499d4f432a50e07318d42861c4865afb22ee4cfe403d4f945507090600186604051808060200180602001838103835285818154815260200191508054801561168f57602002820191906000526020600020905b8160009054906101000a900473ffffffffffffffffffffffffffffffffffffffff1673ffffffffffffffffffffffffffffffffffffffff1681526020019060010190808311611645575b5050838103825284818151815260200191508051906020019060200280838360005b838110156116cc5780820151818401526020810190506116b1565b5050505090500194505050505060405180910390a1600092505b60018054905083101561177d576004600060018581548110151561170657fe5b906000526020600020900160009054906101000a900473ffffffffffffffffffffffffffffffffffffffff1673ffffffffffffffffffffffffffffffffffffffff1673ffffffffffffffffffffffffffffffffffffffff1681526020019081526020016000206000905582806001019350506116e6565b600092505b845183101561185b57600060046000878681518110151561179f57fe5b9060200190602002015173ffffffffffffffffffffffffffffffffffffffff1673ffffffffffffffffffffffffffffffffffffffff168152602001908152602001600020541415156117f057600080fd5b6001830160046000878681518110151561180657fe5b9060200190602002015173ffffffffffffffffffffffffffffffffffffffff1673ffffffffffffffffffffffffffffffffffffffff168152602001908152602001600020819055508280600101935050611782565b8460019080519060200190611871929190611bcd565b5083600081905550600092505b600280549050831015611943576006600060028581548110151561189e57fe5b9060005260206000209001546000191660001916815260200190815260200160002060009055600760006002858154811015156118d757fe5b90600052602060002090015460001916600019168152602001908152602001600020600090556005600060028581548110151561191057fe5b9060005260206000209001546000191660001916815260200190815260200160002060009055828060010193505061187e565b60006002816119529190611c57565b506000600360006101000a81548173ffffffffffffffffffffffffffffffffffffffff021916908373ffffffffffffffffffffffffffffffffffffffff1602179055505b5b5050505050565b600060056000836000191660001916815260200190815260200160002054905060016002805490501115611a4c5760026001600280549050038154811015156119e357fe5b9060005260206000209001546002828154811015156119fe57fe5b906000526020600020900181600019169055508060056000600284815481101515611a2557fe5b90600052602060002090015460001916600019168152602001908152602001600020819055505b6002805480919060019003611a619190611c57565b506006600083600019166000191681526020019081526020016000206000905560076000836000191660001916815260200190815260200160002060009055600560008360001916600019168152602001908152602001600020600090555050565b815481835581811511611aea57818360005260206000209182019101611ae99190611c83565b5b505050565b815481835581811511611b1c57600502816005028360005260206000209182019101611b1b9190611cc9565b5b505050565b828054600181600116156101000203166002900490600052602060002090601f016020900481019282601f10611b6257805160ff1916838001178555611b90565b82800160010185558215611b90579182015b82811115611b8f578251825591602001919060010190611b74565b5b509050611b9d9190611d62565b5090565b815481835581811511611bc857818360005260206000209182019101611bc79190611d87565b5b505050565b828054828255906000526020600020908101928215611c46579160200282015b82811115611c455782518260006101000a81548173ffffffffffffffffffffffffffffffffffffffff021916908373ffffffffffffffffffffffffffffffffffffffff16021790555091602001919060010190611bed565b5b509050611c539190611dac565b5090565b815481835581811511611c7e57818360005260206000209182019101611c7d9190611d87565b5b505050565b611cc691905b80821115611cc257600080820160006101000a81549073ffffffffffffffffffffffffffffffffffffffff021916905550600101611c89565b5090565b90565b611d5f91905b80821115611d5b57600080820160009055600182016000611cf09190611def565b6002820160006101000a81549073ffffffffffffffffffffffffffffffffffffffff02191690556002820160146101000a81549060ff02191690556003820160006101000a81549073ffffffffffffffffffffffffffffffffffffffff021916905550600501611ccf565b5090565b90565b611d8491905b80821115611d80576000816000905550600101611d68565b5090565b90565b611da991905b80821115611da5576000816000905550600101611d8d565b5090565b90565b611dec91905b80821115611de857600081816101000a81549073ffffffffffffffffffffffffffffffffffffffff021916905550600101611db2565b5090565b90565b50805460018160011615610100020316600290046000825580601f10611e155750611e34565b601f016020900490600052602060002090810190611e339190611d62565b5b505600a165627a7a723058206efd2a6e7c45995a6bed8af0da0d4c1c6381cca492967663d7da4c448cefb8970029",
  "source": "//\n\n\nimport \"./Multiownable.sol\";\n\npragma solidity ^0.4.18;\n\n\ncontract MTSmartContract is Multiownable {\n    \n    User[] users;\n    Credit[] credits;\n    \n    struct User {\n        address wallet;\n    }\n    \n    struct Credit {\n        uint id;\n        string name;\n        address wallet;\n        bool approved;\n        address owner;\n        mapping (address => uint) pendingWithdrawals; // withdrawal pattern\n    }\n\n\n    modifier membersOnly {\n        for(uint i = 0; i < users.length; i++) {\n            if(users[i].wallet == msg.sender) {\n                _;\n                break;\n            }\n        }\n    }\n\n    modifier newcomers {\n        for(uint i = 0; i < users.length; i++) {\n            if(users[i].wallet == msg.sender) {\n                return;\n            }\n        }\n        _;\n    }\n\n    modifier ownsCredit {\n        for(uint i = 0; i < credits.length; i++) {\n            if(credits[i].owner == msg.sender) {\n                _;\n                break;\n            }\n        }\n    }\n    \n    function MTSmartContract() public {\n        joinIn();\n    }\n    \n    function joinIn() public newcomers {\n        users.push( User({wallet: msg.sender}) );\n    }\n\n\n    //withdrawal credit\n    function withdrawLoans(uint credit_id) public ownsCredit {\n        for(uint i = 0; i < credits.length; i++) {\n            if(credits[i].id == credit_id) {\n                uint amount = credits[i].pendingWithdrawals[msg.sender];\n                credits[i].pendingWithdrawals[msg.sender] = 0;\n                break;\n            }\n        }\n    }\n    \n    /**\n     * @return uint credit unique ID\n     * */\n    function addCredit(string name, address wallet) public onlyAnyOwner returns(uint) {\n        uint id = credits.length+1;\n        credits.push(Credit({\n            id: id,\n            name: name,\n            wallet: wallet,\n            owner: msg.sender,\n            approved: false\n        }));\n        \n        return id;\n    }\n    \n    /**\n     * Only owners can do this\n     * */\n    function approveCredit(uint id) public onlyManyOwners returns(bool) {\n        for(uint i = 0; i < credits.length; i++) {\n            if(credits[i].id == id) {\n                credits[i].approved = true;\n                return true;\n            }\n        }\n        return false;\n    }\n}\n",
  "sourcePath": "/Users/alexandermazaletskiy/Documents/MoneyToken/MTSmartContract/contracts/MTSmartContract.sol",
  "compiler": {
    "name": "solc",
    "version": "0.4.19+commit.c4cbbb05.Emscripten.clang"
  },
  "schemaVersion": "1.0.1",
  "updatedAt": "2018-02-01T14:11:57.158Z"
}