{
  "contractName": "Multiownable",
  "abi": [
    {
      "constant": true,
      "inputs": [
        {
          "name": "",
          "type": "uint256"
        }
      ],
      "name": "owners",
      "outputs": [
        {
          "name": "",
          "type": "address"
        }
      ],
      "payable": false,
      "stateMutability": "view",
      "type": "function"
    },
    {
      "constant": true,
      "inputs": [],
      "name": "howManyOwnersDecide",
      "outputs": [
        {
          "name": "",
          "type": "uint256"
        }
      ],
      "payable": false,
      "stateMutability": "view",
      "type": "function"
    },
    {
      "constant": true,
      "inputs": [
        {
          "name": "",
          "type": "uint256"
        }
      ],
      "name": "allOperations",
      "outputs": [
        {
          "name": "",
          "type": "bytes32"
        }
      ],
      "payable": false,
      "stateMutability": "view",
      "type": "function"
    },
    {
      "constant": true,
      "inputs": [
        {
          "name": "",
          "type": "bytes32"
        }
      ],
      "name": "votesMaskByOperation",
      "outputs": [
        {
          "name": "",
          "type": "uint256"
        }
      ],
      "payable": false,
      "stateMutability": "view",
      "type": "function"
    },
    {
      "constant": true,
      "inputs": [
        {
          "name": "",
          "type": "bytes32"
        }
      ],
      "name": "votesCountByOperation",
      "outputs": [
        {
          "name": "",
          "type": "uint256"
        }
      ],
      "payable": false,
      "stateMutability": "view",
      "type": "function"
    },
    {
      "inputs": [],
      "payable": false,
      "stateMutability": "nonpayable",
      "type": "constructor"
    },
    {
      "anonymous": false,
      "inputs": [
        {
          "indexed": false,
          "name": "previousOwners",
          "type": "address[]"
        },
        {
          "indexed": false,
          "name": "newOwners",
          "type": "address[]"
        }
      ],
      "name": "OwnershipTransferred",
      "type": "event"
    },
    {
      "constant": true,
      "inputs": [
        {
          "name": "wallet",
          "type": "address"
        }
      ],
      "name": "isOwner",
      "outputs": [
        {
          "name": "",
          "type": "bool"
        }
      ],
      "payable": false,
      "stateMutability": "view",
      "type": "function"
    },
    {
      "constant": true,
      "inputs": [],
      "name": "ownersCount",
      "outputs": [
        {
          "name": "",
          "type": "uint256"
        }
      ],
      "payable": false,
      "stateMutability": "view",
      "type": "function"
    },
    {
      "constant": true,
      "inputs": [],
      "name": "allOperationsCount",
      "outputs": [
        {
          "name": "",
          "type": "uint256"
        }
      ],
      "payable": false,
      "stateMutability": "view",
      "type": "function"
    },
    {
      "constant": false,
      "inputs": [
        {
          "name": "operation",
          "type": "bytes32"
        }
      ],
      "name": "cancelPending",
      "outputs": [],
      "payable": false,
      "stateMutability": "nonpayable",
      "type": "function"
    },
    {
      "constant": false,
      "inputs": [
        {
          "name": "newOwners",
          "type": "address[]"
        }
      ],
      "name": "transferOwnership",
      "outputs": [],
      "payable": false,
      "stateMutability": "nonpayable",
      "type": "function"
    },
    {
      "constant": false,
      "inputs": [
        {
          "name": "newOwners",
          "type": "address[]"
        },
        {
          "name": "newHowManyOwnersDecide",
          "type": "uint256"
        }
      ],
      "name": "transferOwnershipWithHowMany",
      "outputs": [],
      "payable": false,
      "stateMutability": "nonpayable",
      "type": "function"
    }
  ],
  "bytecode": "0x6060604052341561000f57600080fd5b6001805480600101828161002391906100c4565b9160005260206000209001600033909190916101000a81548173ffffffffffffffffffffffffffffffffffffffff021916908373ffffffffffffffffffffffffffffffffffffffff160217905550506001600460003373ffffffffffffffffffffffffffffffffffffffff1673ffffffffffffffffffffffffffffffffffffffff168152602001908152602001600020819055506001600081905550610115565b8154818355818115116100eb578183600052602060002091820191016100ea91906100f0565b5b505050565b61011291905b8082111561010e5760008160009055506001016100f6565b5090565b90565b6112f6806101246000396000f3006060604052600436106100af576000357c0100000000000000000000000000000000000000000000000000000000900463ffffffff168063025e7c27146100b457806318bcd3d01461011757806322f2f89a146101715780632f4a81df1461019a5780632f54bf6e146101c3578063431ab23314610214578063568b591514610253578063893372ca1461028e57806390a53085146102b5578063b9488546146102f0578063e851834114610319575b600080fd5b34156100bf57600080fd5b6100d5600480803590602001909190505061037c565b604051808273ffffffffffffffffffffffffffffffffffffffff1673ffffffffffffffffffffffffffffffffffffffff16815260200191505060405180910390f35b341561012257600080fd5b61016f6004808035906020019082018035906020019080806020026020016040519081016040528093929190818152602001838360200280828437820191505050505050919050506103bb565b005b341561017c57600080fd5b6101846103c9565b6040518082815260200191505060405180910390f35b34156101a557600080fd5b6101ad6103d6565b6040518082815260200191505060405180910390f35b34156101ce57600080fd5b6101fa600480803573ffffffffffffffffffffffffffffffffffffffff169060200190919050506103dc565b604051808215151515815260200191505060405180910390f35b341561021f57600080fd5b6102356004808035906020019091905050610427565b60405180826000191660001916815260200191505060405180910390f35b341561025e57600080fd5b61027860048080356000191690602001909190505061044b565b6040518082815260200191505060405180910390f35b341561029957600080fd5b6102b3600480803560001916906020019091905050610463565b005b34156102c057600080fd5b6102da600480803560001916906020019091905050610579565b6040518082815260200191505060405180910390f35b34156102fb57600080fd5b610303610591565b6040518082815260200191505060405180910390f35b341561032457600080fd5b61037a60048080359060200190820180359060200190808060200260200160405190810160405280939291908181526020018383602002808284378201915050505050509190803590602001909190505061059e565b005b60018181548110151561038b57fe5b90600052602060002090016000915054906101000a900473ffffffffffffffffffffffffffffffffffffffff1681565b6103c681825161059e565b50565b6000600280549050905090565b60005481565b600080600460008473ffffffffffffffffffffffffffffffffffffffff1673ffffffffffffffffffffffffffffffffffffffff16815260200190815260200160002054119050919050565b60028181548110151561043657fe5b90600052602060002090016000915090505481565b60066020528060005260406000206000915090505481565b600061046e336103dc565b151561047957600080fd5b6001600460003373ffffffffffffffffffffffffffffffffffffffff1673ffffffffffffffffffffffffffffffffffffffff1681526020019081526020016000205403905060008160020a6006600085600019166000191681526020019081526020016000205416141515156104ee57600080fd5b8060020a196006600084600019166000191681526020019081526020016000206000828254169250508190555060076000836000191660001916815260200190815260200160002060008154809291906001900391905055506000600760008460001916600019168152602001908152602001600020541415610575576105748261105b565b5b5050565b60076020528060005260406000206000915090505481565b6000600180549050905090565b60008060003373ffffffffffffffffffffffffffffffffffffffff16600360009054906101000a900473ffffffffffffffffffffffffffffffffffffffff1673ffffffffffffffffffffffffffffffffffffffff161415610a14576000855111151561060957600080fd5b61010085511115151561061b57600080fd5b60008411151561062a57600080fd5b8451841115151561063a57600080fd5b600092505b84518310156106a857600073ffffffffffffffffffffffffffffffffffffffff16858481518110151561066e57fe5b9060200190602002015173ffffffffffffffffffffffffffffffffffffffff161415151561069b57600080fd5b828060010193505061063f565b7fe62c04bb3499d4f432a50e07318d42861c4865afb22ee4cfe403d4f945507090600186604051808060200180602001838103835285818154815260200191508054801561074b57602002820191906000526020600020905b8160009054906101000a900473ffffffffffffffffffffffffffffffffffffffff1673ffffffffffffffffffffffffffffffffffffffff1681526020019060010190808311610701575b5050838103825284818151815260200191508051906020019060200280838360005b8381101561078857808201518184015260208101905061076d565b5050505090500194505050505060405180910390a1600092505b60018054905083101561083957600460006001858154811015156107c257fe5b906000526020600020900160009054906101000a900473ffffffffffffffffffffffffffffffffffffffff1673ffffffffffffffffffffffffffffffffffffffff1673ffffffffffffffffffffffffffffffffffffffff1681526020019081526020016000206000905582806001019350506107a2565b600092505b845183101561091757600060046000878681518110151561085b57fe5b9060200190602002015173ffffffffffffffffffffffffffffffffffffffff1673ffffffffffffffffffffffffffffffffffffffff168152602001908152602001600020541415156108ac57600080fd5b600183016004600087868151811015156108c257fe5b9060200190602002015173ffffffffffffffffffffffffffffffffffffffff1673ffffffffffffffffffffffffffffffffffffffff16815260200190815260200160002081905550828060010193505061083e565b846001908051906020019061092d929190611180565b5083600081905550600092505b6002805490508310156109ff576006600060028581548110151561095a57fe5b90600052602060002090015460001916600019168152602001908152602001600020600090556007600060028581548110151561099357fe5b9060005260206000209001546000191660001916815260200190815260200160002060009055600560006002858154811015156109cc57fe5b9060005260206000209001546000191660001916815260200190815260200160002060009055828060010193505061093a565b6000600281610a0e919061120a565b50611054565b610a1d336103dc565b1515610a2857600080fd5b6001600460003373ffffffffffffffffffffffffffffffffffffffff1673ffffffffffffffffffffffffffffffffffffffff1681526020019081526020016000205403915060003660405180838380828437820191505092505050604051809103902090506000600660008360001916600019168152602001908152602001600020541415610b06576002805490506005600083600019166000191681526020019081526020016000208190555060028054806001018281610aea9190611236565b9160005260206000209001600083909190915090600019169055505b60008260020a6006600084600019166000191681526020019081526020016000205416141515610b3557600080fd5b8160020a6006600083600019166000191681526020019081526020016000206000828254179250508190555060016007600083600019166000191681526020019081526020016000206000828254019250508190555060005460076000836000191660001916815260200190815260200160002054141561105357610bb98161105b565b33600360006101000a81548173ffffffffffffffffffffffffffffffffffffffff021916908373ffffffffffffffffffffffffffffffffffffffff16021790555060008551111515610c0a57600080fd5b610100855111151515610c1c57600080fd5b600084111515610c2b57600080fd5b84518411151515610c3b57600080fd5b600092505b8451831015610ca957600073ffffffffffffffffffffffffffffffffffffffff168584815181101515610c6f57fe5b9060200190602002015173ffffffffffffffffffffffffffffffffffffffff1614151515610c9c57600080fd5b8280600101935050610c40565b7fe62c04bb3499d4f432a50e07318d42861c4865afb22ee4cfe403d4f9455070906001866040518080602001806020018381038352858181548152602001915080548015610d4c57602002820191906000526020600020905b8160009054906101000a900473ffffffffffffffffffffffffffffffffffffffff1673ffffffffffffffffffffffffffffffffffffffff1681526020019060010190808311610d02575b5050838103825284818151815260200191508051906020019060200280838360005b83811015610d89578082015181840152602081019050610d6e565b5050505090500194505050505060405180910390a1600092505b600180549050831015610e3a5760046000600185815481101515610dc357fe5b906000526020600020900160009054906101000a900473ffffffffffffffffffffffffffffffffffffffff1673ffffffffffffffffffffffffffffffffffffffff1673ffffffffffffffffffffffffffffffffffffffff168152602001908152602001600020600090558280600101935050610da3565b600092505b8451831015610f18576000600460008786815181101515610e5c57fe5b9060200190602002015173ffffffffffffffffffffffffffffffffffffffff1673ffffffffffffffffffffffffffffffffffffffff16815260200190815260200160002054141515610ead57600080fd5b60018301600460008786815181101515610ec357fe5b9060200190602002015173ffffffffffffffffffffffffffffffffffffffff1673ffffffffffffffffffffffffffffffffffffffff168152602001908152602001600020819055508280600101935050610e3f565b8460019080519060200190610f2e929190611180565b5083600081905550600092505b6002805490508310156110005760066000600285815481101515610f5b57fe5b906000526020600020900154600019166000191681526020019081526020016000206000905560076000600285815481101515610f9457fe5b906000526020600020900154600019166000191681526020019081526020016000206000905560056000600285815481101515610fcd57fe5b90600052602060002090015460001916600019168152602001908152602001600020600090558280600101935050610f3b565b600060028161100f919061120a565b506000600360006101000a81548173ffffffffffffffffffffffffffffffffffffffff021916908373ffffffffffffffffffffffffffffffffffffffff1602179055505b5b5050505050565b6000600560008360001916600019168152602001908152602001600020549050600160028054905011156111095760026001600280549050038154811015156110a057fe5b9060005260206000209001546002828154811015156110bb57fe5b9060005260206000209001816000191690555080600560006002848154811015156110e257fe5b90600052602060002090015460001916600019168152602001908152602001600020819055505b600280548091906001900361111e919061120a565b506006600083600019166000191681526020019081526020016000206000905560076000836000191660001916815260200190815260200160002060009055600560008360001916600019168152602001908152602001600020600090555050565b8280548282559060005260206000209081019282156111f9579160200282015b828111156111f85782518260006101000a81548173ffffffffffffffffffffffffffffffffffffffff021916908373ffffffffffffffffffffffffffffffffffffffff160217905550916020019190600101906111a0565b5b5090506112069190611262565b5090565b8154818355818115116112315781836000526020600020918201910161123091906112a5565b5b505050565b81548183558181151161125d5781836000526020600020918201910161125c91906112a5565b5b505050565b6112a291905b8082111561129e57600081816101000a81549073ffffffffffffffffffffffffffffffffffffffff021916905550600101611268565b5090565b90565b6112c791905b808211156112c35760008160009055506001016112ab565b5090565b905600a165627a7a72305820dc77bea82cf21e35cb94e2900492d9c2b1b6da437743b36429c0dee7d088344d0029",
  "source": "pragma solidity ^0.4.18;\n\n\ncontract Multiownable {\n\n    // VARIABLES\n\n    uint256 public howManyOwnersDecide;\n    address[] public owners;\n    bytes32[] public allOperations;\n    address insideOnlyManyOwners;\n    \n    // Reverse lookup tables for owners and allOperations\n    mapping(address => uint) ownersIndices; // Starts from 1\n    mapping(bytes32 => uint) allOperationsIndicies;\n    \n    // Owners voting mask per operations\n    mapping(bytes32 => uint256) public votesMaskByOperation;\n    mapping(bytes32 => uint256) public votesCountByOperation;\n    \n    // EVENTS\n\n    event OwnershipTransferred(address[] previousOwners, address[] newOwners);\n\n    // ACCESSORS\n\n    function isOwner(address wallet) public constant returns(bool) {\n        return ownersIndices[wallet] > 0;\n    }\n\n    function ownersCount() public constant returns(uint) {\n        return owners.length;\n    }\n\n    function allOperationsCount() public constant returns(uint) {\n        return allOperations.length;\n    }\n\n    // MODIFIERS\n\n    /**\n    * @dev Allows to perform method by any of the owners\n    */\n    modifier onlyAnyOwner {\n        require(isOwner(msg.sender));\n        _;\n    }\n\n    /**\n    * @dev Allows to perform method only after all owners call it with the same arguments\n    */\n    modifier onlyManyOwners {\n        if (insideOnlyManyOwners == msg.sender) {\n            _;\n            return;\n        }\n        require(isOwner(msg.sender));\n\n        uint ownerIndex = ownersIndices[msg.sender] - 1;\n        bytes32 operation = keccak256(msg.data);\n        \n        if (votesMaskByOperation[operation] == 0) {\n            allOperationsIndicies[operation] = allOperations.length;\n            allOperations.push(operation);\n        }\n        require((votesMaskByOperation[operation] & (2 ** ownerIndex)) == 0);\n        votesMaskByOperation[operation] |= (2 ** ownerIndex);\n        votesCountByOperation[operation] += 1;\n\n        // If all owners confirm same operation\n        if (votesCountByOperation[operation] == howManyOwnersDecide) {\n            deleteOperation(operation);\n            insideOnlyManyOwners = msg.sender;\n            _;\n            insideOnlyManyOwners = address(0);\n        }\n    }\n\n    // CONSTRUCTOR\n\n    function Multiownable() public {\n        owners.push(msg.sender);\n        ownersIndices[msg.sender] = 1;\n        howManyOwnersDecide = 1;\n    }\n\n    // INTERNAL METHODS\n\n    /**\n    * @dev Used to delete cancelled or performed operation\n    * @param operation defines which operation to delete\n    */\n    function deleteOperation(bytes32 operation) internal {\n        uint index = allOperationsIndicies[operation];\n        if (allOperations.length > 1) {\n            allOperations[index] = allOperations[allOperations.length - 1];\n            allOperationsIndicies[allOperations[index]] = index;\n        }\n        allOperations.length--;\n        \n        delete votesMaskByOperation[operation];\n        delete votesCountByOperation[operation];\n        delete allOperationsIndicies[operation];\n    }\n\n    // PUBLIC METHODS\n\n    /**\n    * @dev Allows owners to change their mind by cacnelling votesMaskByOperation operations\n    * @param operation defines which operation to delete\n    */\n    function cancelPending(bytes32 operation) public onlyAnyOwner {\n        uint ownerIndex = ownersIndices[msg.sender] - 1;\n        require((votesMaskByOperation[operation] & (2 ** ownerIndex)) != 0);\n        \n        votesMaskByOperation[operation] &= ~(2 ** ownerIndex);\n        votesCountByOperation[operation]--;\n        if (votesCountByOperation[operation] == 0) {\n            deleteOperation(operation);\n        }\n    }\n\n    /**\n    * @dev Allows owners to change ownership\n    * @param newOwners defines array of addresses of new owners\n    */\n    function transferOwnership(address[] newOwners) public {\n        transferOwnershipWithHowMany(newOwners, newOwners.length);\n    }\n\n    /**\n    * @dev Allows owners to change ownership\n    * @param newOwners defines array of addresses of new owners\n    * @param newHowManyOwnersDecide defines how many owners can decide\n    */\n    function transferOwnershipWithHowMany(address[] newOwners, uint256 newHowManyOwnersDecide) public onlyManyOwners {\n        require(newOwners.length > 0);\n        require(newOwners.length <= 256);\n        require(newHowManyOwnersDecide > 0);\n        require(newHowManyOwnersDecide <= newOwners.length);\n        for (uint i = 0; i < newOwners.length; i++) {\n            require(newOwners[i] != address(0));\n        }\n\n        OwnershipTransferred(owners, newOwners);\n\n        // Reset owners array and index reverse lookup table\n        for (i = 0; i < owners.length; i++) {\n            delete ownersIndices[owners[i]];\n        }\n        for (i = 0; i < newOwners.length; i++) {\n            require(ownersIndices[newOwners[i]] == 0);\n            ownersIndices[newOwners[i]] = i + 1;\n        }\n        owners = newOwners;\n        howManyOwnersDecide = newHowManyOwnersDecide;\n\n        // Discard all pendign operations\n        for (i = 0; i < allOperations.length; i++) {\n            delete votesMaskByOperation[allOperations[i]];\n            delete votesCountByOperation[allOperations[i]];\n            delete allOperationsIndicies[allOperations[i]];\n        }\n        allOperations.length = 0;\n    }\n\n}",
  "sourcePath": "/Users/alexandermazaletskiy/Documents/MoneyToken/MTSmartContract/contracts/Multiownable.sol",
  "compiler": {
    "name": "solc",
    "version": "0.4.19+commit.c4cbbb05.Emscripten.clang"
  },
  "schemaVersion": "1.0.1",
  "updatedAt": "2018-02-01T14:11:57.159Z"
}